:1000000080313C28080008007E1480310B1F09282D
:100010000A283A282100911E0E280F281B282000AC
:10002000911E132814281B28210045088A00440823
:100030000A0080313A282100111F1F282028292872
:100040002000111F2428252829289431D22480310A
:100050003A282100111E2D282E283A282000111E92
:10006000322833283A28210047088A0046080A0027
:1000700080313A287E10090080313E289F3084006C
:1000800094308500E3308600003087000C309331D7
:10009000F4238031F1308400943085004F308600A5
:1000A0000130870010309331F4238031F601F701DD
:1000B000F801F901EF01A0308400003085003330F1
:1000C0009331EE23803120308400013085002F30C1
:1000D0009331EE238031A030840001308500203040
:1000E0009331EE2380317E1020008A31532A200084
:1000F0004D088039D7004D35DD00CC1F8028812880
:1001000082285D145D0803198628872896285D0AD1
:10011000031D8B288C2894280030CD000030CC00A3
:100120000030CB000030CA00CC179E280030CD0034
:100130000030CC000030CB000030CA0051088039BC
:10014000D2005208D7065135D800D01FA828A928B8
:10015000AA28581458080319AE28AF28BE28580AF0
:10016000031DB328B428BC280030D1000030D000D3
:100170000030CF000030CE00D017C6280030D100AC
:100180000030D0000030CF000030CE0058080319F6
:10019000CA28CB28D0285D08031DCF28D028D9280D
:1001A0000030CD000030CC000030CB000030CA0061
:1001B000B12A4A08F40050089631C62680317508E5
:1001C0002000E3007408E2006208D200D301D401E9
:1001D000D5015508DC005408DB005308DA0052084A
:1001E000D9006308D200D301D401D5015508E1003C
:1001F0005408E0005308DF005208DE004B08F4000A
:100200004F089631C626803175082000E300740837
:10021000E2006208D200D301D401D5015208D90707
:100220005308DA3D5408DB3D5508DC3D6308D20035
:10023000D301D401D5015208DE075308DF3D54082D
:10024000E03D5508E13D4C08F4004E089631C626C5
:10025000803175082000E3007408E2006208D200D3
:10026000D301D401D5015208D9075308DA3D540807
:10027000DB3D5508DC3D6308D200D301D401D50134
:100280005208DE075308DF3D5408E03D5508E13DC4
:100290000830D935DA0DDB0DDC0D890B49294B0807
:1002A000F4004E089631C626803175082000E30020
:1002B0007408E2006208D9076308DA3D0030DB3DCC
:1002C000DC3D4A08F4004F089631C6268031750897
:1002D0002000E3007408E2006208D9076308DA3DF1
:1002E0000030DB3DDC3D0830D935DA0DDB0DDC0DAF
:1002F000890B74294A08F4004E089631C6268031CD
:1003000075082000E3007408E2006208D90763085A
:10031000DA3D0030DB3DDC3D4B08F40050089631FF
:10032000C626803175082000E3007408E2006208E8
:10033000DE076308DF3D0030E03DE13D4C08F4009E
:100340004F089631C626803175082000E3007408F6
:10035000E2006208DE076308DF3D0030E03DE13D7A
:100360004C08F40050089631C626803175082000EC
:10037000E3007408E2006208D2006308D300D401ED
:10038000D5010830D235D30DD40DD50D890BC22936
:100390005208DE075308DF3D5408E03D5508E13DB3
:1003A0005908D2005A08D3005B08D4005C08D50075
:1003B0001830D536D40CD30CD20C890BD92952085D
:1003C000DE075308DF3D5408E03D5508E13D0830A5
:1003D000D935DA0DDB0DDC0D890BE8295D085807EE
:1003E000D200D301D30D5208823EE200FF30533DCC
:1003F000E300112A0130DE35DF0DE00DE10D890B40
:10040000FB29DC1F042A052A062A5E140130D9358F
:10041000DA0DDB0DDC0D890B072AFF30E207FF3018
:10042000E33DE01F142A152AFA29D801DC1F192AF6
:100430001A2A362AFF305905D200FF305A05D30058
:10044000FF305B05D4007F305C05D50055085404AF
:100450005304520403192D2A2E2A312AD801D80A0E
:10046000362A5E1C342A352A362A2E2A58080319C1
:100470003A2A3B2A632A0130DE070030DF3D003094
:10048000E03D0030E13D611C462A472A632A5E08B0
:10049000D2005F08D3006008D4006108D5000130A5
:1004A000D600D537D40CD30CD20CD60B512A550814
:1004B000E1005408E0005308DF005208DE0001307C
:1004C000E2070030E33D6308803AD20080305202F8
:1004D000031D6C2AFF306202031C6F2A702A7A2ADD
:1004E0007F302000E1008030E0000030DF0000308D
:1004F000DE00A52A20006308803AD2008030520234
:10050000031D842A013062020318872A882A932A4D
:1005100000302000E1000030E0000030DF0000305B
:10052000DE00D701A52A20006208DD00FF30DE05CD
:10053000FF30DF057F30E0050030E1055D1CA12ABA
:10054000A22AA32AE0175D36E1005708D20052081C
:10055000E1046108CD006008CC005F08CB005E08B4
:10056000CA000800200031088039BE003135C000C3
:10057000B01FBB2ABC2ABD2A401440080319C12A57
:10058000C22AD22A400A031DC62AC72ACF2A00300F
:10059000B1000030B0000030AF000030AE00B01746
:1005A000B101DA2A0030B1000030B0000030AF00F5
:1005B0000030AE0035088039BF003F083E06031901
:1005C000E22AE32AE42A3E173535BF00B41FE92AA0
:1005D000EA2AEB2A3F143F080319EF2AF02A002BDE
:1005E0003F0A031DF42AF52AFD2A0030B500003029
:1005F000B4000030B3000030B200B417B501082BCE
:100600000030B5000030B4000030B3000030B2005C
:1006100040083F0203180D2B0E2B342B3E1F112BCD
:10062000122B162B8030B6003608BE064008C100DB
:100630003F08C0004108BF002E08C1003208AE00CC
:100640004108B2002F08C1003308AF004108B300D1
:100650003008C1003408B0004108B4003108C100BE
:100660003508B1004108B500C1013F08B600B70127
:100670003708B90040083602B800031CB90339082E
:10068000803ABA0080303A02031D482B1A303802F3
:10069000031C4B2B4C2B7E2B2000310830042F04E5
:1006A0002E04031D542B562B0130572B0030C10054
:1006B0000030B1000030B0000030AF000030AE00BC
:1006C0003F08C000852B411C662B672B6B2B4136E6
:1006D0000138C1006D2B0310C10C2E1C702B712B27
:1006E000722BC1170130B600B137B00CAF0CAE0C95
:1006F000B60B742B0130B6003608C00720003F0847
:100700004002031C842B852B632B3E1B882B892BDB
:10071000BF2B4008031D8D2B8E2B972B0030B10073
:100720000030B0000030AF000030AE00B92C32080D
:10073000AE073308AF3D3408B03D3508B13D311C3C
:10074000A22BA32B4B2C411CA62BA72BAB2B41364A
:100750000138C100AD2B0310C10C2E1CB02BB12BE6
:10076000B22BC1170130B600B137B00CAF0CAE0CD4
:10077000B60BB42B0130B6003608C0074B2C31083D
:10078000803AB6003508803A3602031DD12B340872
:100790003002031DD12B33082F02031DD12B320849
:1007A0002E020318D42BD52B0D2CFF30B600FF30B2
:1007B000B700FF30B800FF30B9002E083202BA008F
:1007C0002F08333BBB003008343BBC003108353BBD
:1007D000BD003A08B6073B08B73D3C08B83D3D08A8
:1007E000B93D3908B1003808B0003708AF00360805
:1007F000AE008030B6003608BE06C109C10A410805
:10080000031D032C042C152C0130AE070030AF3D26
:100810000030B03D0030B13D152C3208AE02330837
:10082000AF3B3408B03B3508B13B310830042F04EE
:100830002E04031D1C2C1D2C472C4108031D212CAC
:10084000222C472C0030B1000030B0000030AF0047
:100850000030AE00B92C0130AE35AF0DB00DB10D8A
:10086000890B2C2CC11F352C362C372C2E14411CF7
:100870003A2C3B2C3E2C0314C10D402C0310C10D0F
:1008800040080319442C452C472C0130C002B01FEE
:100890004A2C4B2C2B2CBF01C11F4F2C502C5E2CF3
:1008A00041087F390319552C562C592CBF01BF0A1A
:1008B0005E2C2E1C5C2C5D2C5E2C562C3F080319E4
:1008C000622C632C902C0130AE070030AF3D00301D
:1008D000B03D0030B13D311C6E2C6F2C902C2E0899
:1008E000B6002F08B7003008B8003108B900013051
:1008F000BA00B937B80CB70CB60CBA0B792C39085A
:10090000B1003808B0003708AF003608AE00400A22
:1009100003198B2C8C2C902C0130B6003608C007A4
:10092000400A0319942C952C9A2C4008031D992CED
:100930009A2CA82C0030B1000030B0000030AF007D
:100940000030AE004008031DA62CA72CA82CBE0129
:10095000401CAB2CAC2CAE2CB017B22C7F30B600A8
:100960003608B0054036B100BE1FB72CB82CB92CE4
:10097000B1170800200027088039B1002735B800DA
:10098000A61FC32CC42CC52C381438080319C92C35
:10099000CA2CDA2C380A031DCE2CCF2CD72C0030D1
:1009A000A7000030A6000030A5000030A400A61764
:1009B000A701E22C0030A7000030A6000030A500FF
:1009C0000030A40023088039A8002808B106233588
:1009D000B900A21FEC2CED2CEE2C391439080319A8
:1009E000F22CF32C032D390A031DF72CF82C002DC3
:1009F0000030A3000030A2000030A1000030A000B1
:100A0000A217A3010B2D0030A3000030A20000307C
:100A1000A1000030A0002308220421042004031DAB
:100A2000122D132D2C2D0030A7000030A600003011
:100A3000A5000030A4008030A6047F30A704310850
:100A4000A8002808A7042708A3002608A200250854
:100A5000A1002408A000632E3808031D302D312D7D
:100A60003A2D0030A3000030A2000030A100003079
:100A7000A000632E3808A800A9012908AB00390896
:100A80002802AA00031CAB032A087F3EB2000030F4
:100A90002B3DB3002708B0002608AF002508AE00A4
:100AA0002408AD000030A7000030A6000030A500EB
:100AB0000030A4000030B7000030B6000030B500B0
:100AC0000030B400B901A22D39080319682D692D31
:100AD000832D0130AD35AE0DAF0DB00D890B6A2DF4
:100AE0000130A435A50DA60DA70D890B712DB71FDB
:100AF0007A2D7B2D7C2D24140130B435B50DB60D27
:100B0000B70D890B7D2D23083002031D912D22087E
:100B10002F02031D912D21082E02031D912D200867
:100B20002D02031C942D952D9E2D37172008AD0204
:100B30002108AE3B2208AF3B2308B03B0130A800A0
:100B40002808B9071A303902031CA72DA82D642DD7
:100B500030082F042E042D040319AF2DB02DC92DFC
:100B60003414C92D0130A435A50DA60DA70D890B90
:100B7000B32DB71FBC2DBD2DBE2D24140130B435AF
:100B8000B50DB60DB70D890BBF2DFF30B207FF3085
:100B9000B33DA61FCC2DCD2DB22DB901B71FD12D40
:100BA000D22DEE2DFF303405A800FF303505A90009
:100BB000FF303605AA007F303705AB002B082A042A
:100BC000290428040319E52DE62DE92DB901B90AF8
:100BD000EE2D241CEC2DED2DEE2DE62D39080319FC
:100BE000F22DF32D1B2E0130A4070030A53D00305F
:100BF000A63D0030A73D271CFE2DFF2D1B2E2408EF
:100C0000A8002508A9002608AA002708AB00013083
:100C1000AC00AB37AA0CA90CA80CAC0B092E2B0806
:100C2000A7002A08A6002908A5002808A40001306A
:100C3000B2070030B33D3308803AA8008030280264
:100C4000031D242EFF303202031C272E282E352EA2
:100C5000FF302000B2000030B3000030A7000030A9
:100C6000A6000030A5000030A40020003308803A20
:100C7000A80080302802031D3F2E013032020318E5
:100C8000422E432E4F2E2000B201B3010030A700A8
:100C90000030A6000030A5000030A400B101200003
:100CA0003208B800381C552E562E582EA6175C2E2A
:100CB0007F30A8002808A6053836A7003108A8000C
:100CC0002808A704232D08008931F8218631200047
:100CD000EE00492F20006E08013E89311221863135
:100CE0009331BF23863168302000DD009830DE006C
:100CF0009431E12486319331A12386312200DF0033
:100D0000E001E101E20162082000B0002200610878
:100D10002000AF00220060082000AE0022005F0823
:100D20002000AD000330B1008B316F238631943148
:100D3000132486317C2F20006E08013E8F31082756
:100D40008631200067082100E000200066082100AD
:100D5000DF00200065082100DE002000640821007B
:100D6000DD00943144248631B0302000DD0098301D
:100D7000DE009431E1248631953112258631200040
:100D800023082100D600200022082100D5002000E1
:100D900021082100D400200020082100D3008C313C
:100DA000D62486319431132486317C2F20006E089E
:100DB000013E8F3108278631200067082100E000BE
:100DC000200066082100DF00200065082100DE0009
:100DD000200064082100DD0094313A248631AC30D3
:100DE0002000DD009830DE009431E1248631953119
:100DF00001258631200023082100D600200022088A
:100E00002100D500200021082100D4002000200866
:100E10002100D3008C31D6248631943113248631BD
:100E20007C2F21006D080319162F182F0130192F60
:100E30000030ED0073302000DD009830DE0094318A
:100E4000E1248631972E9631112686310310220037
:100E50008C1E031403182D2F302F22008C16322FD6
:100E600022008C127C2F9631492686317C2F9631B8
:100E70002D2686317C2F08302000DD009830DE00E2
:100E80009431E124863120006E089531A825863101
:100E90007C2F6E0886000130870001082200DF00E9
:100EA000E0016008003A0319562F3B2F5F08003A13
:100EB00003197C2F493A0319D62E053A0319112F2D
:100EC0001C3A03199B2E033A03196A2E343A03196C
:100ED000232F0E3A0319D62E053A0319112F033A80
:100EE0000319332F1F3A03199B2E023A0319372F88
:100EF000013A03196A2E3B2F08002100AF1F812FF2
:100F0000822F882F01302000C3000030C4008F2FB3
:100F10002F082000C40021002E082000C30021005B
:100F20002D082000C20021002C082000C1001F3025
:100F3000C5000030C6002300BF01CF2FFF302000C6
:100F4000C507FF30C63D4508A03E8600013087003A
:100F50000A30A0000030A1003F08A3003E08A20014
:100F600097315A27873120002008303E8100FF301A
:100F7000C307FF30C43DFF30C107FF30C23D0A3018
:100F8000A0000030A1003F08A3003E08A200883165
:100F9000D520873120002108BF002008BE00200096
:100FA000450846040319D52FD62FE92F3E083F04E4
:100FB000031DDB2FDC2F9E2F4408803AC0008030B9
:100FC0004002031DE52F013043020318E82FE92FEB
:100FD0009E2F20003D08B3003C08B2004508A03E0B
:100FE000B4004208B6004108B50097318F27873119
:100FF00008002000A000200897313327873108001F
:101000002000AE00B001B10118282F08AC00AD01DE
:101010002C08A1002D08A2002B08A4002A08A30078
:101020008B311023883101302000B0070030B13DF2
:1010300030082E07AC002C0886000130870001081C
:10104000AF002F08031D252826280528080077084B
:10105000A03E86008701810123001D1D3028312814
:101060003C287708A03E86008701811421004308B0
:101070008A0042080A00883123009D1C402841282C
:101080004C287708A03E8600870101152100410801
:101090008A0040080A0088317708A03E8600870150
:1010A00001080319542855285C2821003F088A00AC
:1010B0003E080A0088315F2895317625883108007E
:1010C00022008C018D018E01173021008C00203010
:1010D0008D005F308E006D3023008E0010308D004B
:1010E00016308C0024008D018C018E0125008C01AE
:1010F0008D018E01373026008C00F0308D00FF30DE
:101100008E003F3027008C00F0308D00FF308E00C5
:101110000D303C00A4000E30A00018303D009E00B1
:1011200014309F0019309C000230A5003C00A10142
:101130000800210091122730F4000830F5009331A7
:10114000E223883121001112A430F4001630F5009A
:101150009331E8238831083023009F0090309D00B0
:1011600024309E008A309B009C010330F400003044
:10117000F5009331D6238831A830F4001330F50000
:101180009331DC238831A430F4001330F50093311F
:10119000D02388312100D001F901F8010830D200B4
:1011A000F701F601D101911608002000A501A60162
:1011B000200821040319DD28DE280D29A401A40A32
:1011C000EA280130A035A10D890BE2280130F40096
:1011D0007408A407A11FED28EE28E1280130A535E9
:1011E000A60D890BEF2821082302031DF9282008EA
:1011F0002202031CFC28FD2802292008A202210843
:10120000A33B25140130A136A00C890B0329013022
:10121000A402031D0C290D29EE282608A10025088B
:10122000A00008002000A300A701A401A501200040
:1012300023088600013087000108A6000130A200C3
:101240002208A30730302602031C272928293C291D
:101250003A30260203182D292E293C292708F400AC
:101260000A309531492589312000A7002608D03E53
:10127000A2002208A7073F29200027085129013092
:10128000A4070030A53D2508803AA2008030220244
:10129000031D4C2903302402031C4F295029172910
:1012A0003C290800200023082204210420040319FB
:1012B0005A295B299429F501F50A69290130A035DD
:1012C000A10DA20DA30D890B5F290130F400740854
:1012D000F507A31F6C296D295E2923082702031D2A
:1012E0007B2922082602031D7B2921082502031DD4
:1012F0007B2920082402031C7E297F2987292008B6
:10130000A4022108A53B2208A63B2308A73B0130E5
:10131000A336A20CA10CA00C890B88290130F50280
:10132000031D932994296D292708A3002608A200EC
:101330002508A1002408A000080000302000AB0010
:101340000030AA000030A9000030A80023082204C1
:10135000210420040319AD29AE29EF29AC01AC0A00
:10136000BC290130A035A10DA20DA30D890BB22916
:101370000130F4007408AC07A31FBF29C029B129AC
:101380000130A835A90DAA0DAB0D890BC129230881
:101390002702031DD52922082602031DD52921086D
:1013A0002502031DD52920082402031CD829D92988
:1013B000E2292008A4022108A53B2208A63B230815
:1013C000A73B28140130A336A20CA10CA00C890B5A
:1013D000E3290130AC02031DEE29EF29C0292B08B7
:1013E000A3002A08A2002908A1002808A0000800DC
:1013F00094310A248931003A031DFF29002A0A2A60
:1014000020006F08303E86000130870081016F08A0
:10141000303E522A133020006F02031C102A112A7A
:101420002E2A152A9631EA26893194310A248931E7
:10143000003A031D1C2A1D2A122A20302000DD003C
:101440009830DE009431E1248931943113248931BC
:101450002000EF012200B0013030522A9631EA26F6
:1014600089312000E6006F08303E86000130870099
:10147000660881006F08303E8600013087000A3020
:101480000106031D442A452A4D2A6F08313E860075
:10149000013087008101EF012C2A0130E600660847
:1014A000EF07F829080097310E278A318B170B17A1
:1014B000943187248A319331BA238A3180302000D5
:1014C000DD009830DE009431E1248A3186316426D3
:1014D0008A319331B0238A31003A0319702A712A74
:1014E000822A94311C248A318E3120268A312100AF
:1014F0004E08CE0AE1001F306102031C802A812AB7
:10150000822ACE019431B8248A31003A0319892AFB
:101510008A2A662A943130248A31A8302000DD00DE
:101520009830DE00943164248A312100E100E20128
:1015300061082000DF00210062082000E000033085
:10154000E1000030E2009431E1248A31893020004A
:10155000DD009830DE009431E1248A31662A803142
:101560003C28F4002400951AB62AB72A0E2B7408DA
:101570002000A000A101A035A10DA035A10D0130D2
:10158000200784001830213D8038850000082400A1
:10159000940074082000A000A101A035A10DA03581
:1015A000A10D0030200784001830213D80388500CF
:1015B000000824009500960174082000A000A101F5
:1015C000A035A10DA035A10D0230200784001830F0
:1015D000213D803885000008240092007408200016
:1015E000A000A101A035A10DA035A10D0330200759
:1015F00084001830213D803885000008A200A20E2A
:10160000A20DA20D21000D0820002206BF392206DE
:1016100021008D002400951601300F2B00300800AA
:101620002000230824040319162B172B1D2B230835
:101630002404031D1C2B1D2B222B21088731F92785
:101640008B316E2B23088600240887004931160051
:10165000010403192C2B2D2B4D2B23088600240865
:1016600087004931403FA500413FA600230886007E
:10167000240887004231403FA700413FA8002808C6
:10168000803AA9002608803A2902031D492B250823
:10169000270203184C2B4D2B6E2B200023088600AD
:1016A0002408870042312308840024088500403F35
:1016B0000007A5000131413F003DA6002508860036
:1016C0002608870021088100230886002408870057
:1016D00042310130810741310318810A080020009E
:1016E000B301B30A4E30B2003308B20232088600AA
:1016F000013087000030A3000030A2000030A100BC
:101700000A30A0003008A7002F08A6002E08A50068
:101710002D08A400893152218B3120002008303E51
:1017200081000030A3000030A2000030A1000A3088
:10173000A0003008A7002F08A6002E08A5002D083D
:10174000A40089319D218B3120002308B00022089C
:10175000AF002108AE002008AD0030082F042E0491
:101760002D04031DB42BB52BBC2B31083302031CF5
:10177000BA2BBB2BBC2BC62B0130B2003208B307EF
:101780000B303302031CC52BC62B722B2200CE015B
:101790004E302000B200330832029531A8258B313B
:1017A000080003102000660D670DED006D08031D95
:1017B000DA2BDB2BE42B0030E7000030E6000030B2
:1017C000E5000030E400412C6408E8006508E90009
:1017D0006608EA006708EB001F30EB36EA0CE90CFC
:1017E000E80C890BED2B6808EC00E617FF30E405E8
:1017F000FF30E505FF30E6050030E7059630ED02E5
:10180000ED1F032C042C1C2C6D08803A973E031806
:101810000A2C0B2C0C2CDB2B0130E736E60CE50CEC
:10182000E40C890B0D2C0130E8006808ED07031D5E
:101830001A2C1B2C0C2C312C20306D02031C212C5B
:10184000222C2C2CDB2B0130E435E50DE60DE70DC9
:10185000890B242C0130ED026D08031D302C312C36
:10186000232C6C080319352C362C412CE409E5098E
:10187000E609E709E40A0319E50A0319E60A031968
:10188000E70A08002000490886008701403FCB0096
:10189000413FCC004B0884004C0885001200253ADB
:1018A000031D532C542CBB2C4908860087010130A2
:1018B000810741310318810A2100AC01AD010310F9
:1018C000003003180130C800FF30AE00FF30AF0019
:1018D0002000490886008701403FD300413FD400E3
:1018E00053088400540885001200753A031D792CB2
:1018F0007A2CB12C4A0886008701010884008501F2
:1019000002308107003FCF00013FD0005308013E65
:10191000CB000030543DCC004908860087014B08BD
:10192000C03F4C08C13FA02C4808BD004708BC0080
:101930005008BF004F08BE0087317D278C31D52C61
:1019400053088400540885000008CB00CC014C08E3
:10195000003A0319AC2CB12C4B08753A0319942C9E
:10196000B12C2000490886008701013081074131F0
:101970000318810AD52C490886008701403FCB0017
:10198000413FCC004B0884004C0885000008CD0086
:10199000CE014D08A1004E08A2004808A400470847
:1019A000A3008B3110238C31B12C08002100560884
:1019B0002000E700210055082000E600210054081F
:1019C0002000E500210053082000E4008B31D123E2
:1019D0008C31200065082100DC0020006408210013
:1019E000DB0056082000C900210055082000C8006F
:1019F000210054082000C700210053082000C60021
:101A000021005B082000A00021005C082000A1004C
:101A1000A201A30100308D3175258C3120002308EF
:101A2000C5002208C4002108C3002008C200963166
:101A300084268C3120004508D1004408D00043089A
:101A4000CF004208CE004730CD00C330CC0050302C
:101A5000CB000030CA00803177208C3120004D0847
:101A6000E7004C08E6004B08E5004A08E4008B312B
:101A7000D1238C31200067082100DA00200066089D
:101A80002100D900200065082100D800200064084A
:101A90002100D7005B082000AD0021005C08200079
:101AA000AE00AF01B001B1018B316F238C31B43086
:101AB0002000DD009830DE009431E1248C312100DB
:101AC0005A082000B000210059082000AF00210072
:101AD00058082000AE00210057082000AD00053056
:101AE000B1008B316F238C3108002000A80028083A
:101AF00003197B2D7C2D902DA31F7F2D802D902DE4
:101B00002009AA002109AB002209AC002309AD007D
:101B1000AA0A0319AB0A0319AC0A0319AD0A982DD6
:101B20002308AD002208AC002108AB002008AA0061
:101B30002308220421042004031D9F2DA02DA92D7C
:101B40000030A3000030A2000030A1000030A0004F
:101B50001F2E9630A900B72D0130A4002408A90734
:101B60000130AD36AC0CAB0CAA0C890BB12DFE309C
:101B70002D05031DBC2DBD2DAC2DD12D0130A40094
:101B80002408A9070130AA070030AB3D0030AC3D66
:101B90000030AD3D0130AD36AC0CAB0CAA0C890B5E
:101BA000CB2DFF302D05031DD62DD72DBE2DE12DBC
:101BB0000130A9020130AA35AB0DAC0DAD0D890B7A
:101BC000DB2DAC1BE42DE52DEB2D02302902031893
:101BD000EA2DEB2DD82D2918EE2DEF2DF72DFF3006
:101BE000AA05FF30AB057F30AC05FF30AD05031013
:101BF000A90C2908A400A501A601A7011830A43545
:101C0000A50DA60DA70D890BFF2D2408AA042508F4
:101C1000AB042608AC042708AD0428080319112ECC
:101C2000122E172EA31F152E162E172EAD172D08A8
:101C3000A3002C08A2002B08A1002A08A00008007D
:101C400094314E248E312100CF00943159248E31AD
:101C50002100EE004F086E02BA00BB01031CBB035B
:101C60003A082000A00021003B082000A100890DB7
:101C7000893B8909A200A30001308D3175258E3181
:101C800020002308B1002208B0002108AF0020087E
:101C9000AE0021002B082000B50021002A082000FA
:101CA000B400210029082000B300210028082000EA
:101CB000B2008231B2228E31200031082100AB0007
:101CC000200030082100AA0020002F082100A900D0
:101CD00020002E082100A8003A082000A0002100C2
:101CE0003B082000A100890D893B8909A200A300BF
:101CF00001308D3175258E3120002308D100220856
:101D0000D0002108CF002008CE0021006608200066
:101D1000CD00210065082000CC00210064082000CF
:101D2000CB00210063082000CA00803177208E316B
:101D300020004D08B5004C08B4004B08B3004A0819
:101D4000B20021006A082000D100210069082000AB
:101D5000D000210068082000CF0021006708200083
:101D6000CE0021002B082000CD0021002A082000F1
:101D7000CC00210029082000CB00210028082000E9
:101D8000CA00803177208E3120004D08B1004C0808
:101D9000B0004B08AF004A08AE008231B2228E314B
:101DA00020003108E7003008E6002F08E5002E0883
:101DB000E4008B31D1238E31200065082100B7006B
:101DC000200064082100B6003708803A2000EE00A9
:101DD00084306E02031DEF2E003021003602031CFA
:101DE000F22EF32EF92EFF302100B6000330B7009B
:101DF000002F2100B71FFD2EFE2E002FB601B701C8
:101E00003708F5003608F40095318F258E3108002B
:101E10002100D7000030DB000030DA000030D900AC
:101E20000030D800D501570886000130870001082E
:101E3000DC0001302000E80068082100D7073030BE
:101E40005C02031C242F252F982F3A305C020318C4
:101E50002A2F2B2F982F41302000CD002030CC008E
:101E60000030CB000030CA0021005B082000D10008
:101E700021005A082000D000210059082000CF007E
:101E8000210058082000CE00803177208F312000BB
:101E90004D082100DB0020004C082100DA00200062
:101EA0004B082100D90020004A082100D8005C0816
:101EB000D03E2000A000FF3003180030A100A20196
:101EC000A30100308D3175258F3120002308B1002A
:101ED0002208B0002108AF002008AE0021005B08F6
:101EE0002000B50021005A082000B4002100590844
:101EF0002000B300210058082000B2008231B22235
:101F00008F31200031082100DB0020003008210043
:101F1000DA0020002F082100D90020002E0821001F
:101F2000D80001302000E80068082100D607132FF0
:101F30002C305C0603199D2F9E2FA42F2E305C069B
:101F4000031DA32FA42FA82FD501D50AD601132F27
:101F5000D301D401DB2F41302000A3002030A200A8
:101F60000030A1000030A00021005B082000A70085
:101F700021005A082000A600210059082000A500D1
:101F8000210058082000A4008431BA248F31200099
:101F900023082100DB00200022082100DA002000B5
:101FA00021082100D900200020082100D80001309C
:101FB000D3070030D43D55080319DF2FE02FEF2F52
:101FC0005408803A2000E80080306802031DEB2F9F
:101FD000210056085302031CEE2FEF2FAB2F2100D8
:101FE0005B082000E70021005A082000E6002100DD
:101FF00059082000E500210058082000E4000800EE
:1027420021006E0808009531762593310800230098
:102752001D121D16080016302100970008002000E7
:10276200100E890C0139080000308A31B1229331F0
:102772000800003095315F2593310800F400740899
:102782002100EE00080021001C08F1001B08F000E7
:10279200080075082100BD007408BC000800750817
:1027A2002100BF007408BE00080075082100C300A4
:1027B2007408C200080075082100C1007408C00036
:1027C200080075082100C5007408C40008007508D7
:1027D2002100C7007408C6000800640080010131AE
:1027E200890BEF2B0034FE0012001E00FE0BF52BAE
:1027F20000343200910192019301940195019601F6
:102802000800FF3020009E009D01911006309F00BD
:10281200080021005108031D0F2C112C0130122C2D
:10282200003008000D309731332794310A30973148
:102832003327943108008330200098007F309600BF
:10284200950190128030970008009B302800960076
:102852009501200092103F302800970008007C303C
:1028620028009D009C0120009213073028009E0042
:10287200080021006008EA005F08E9005E08E8003D
:102882005D08E700080021006008E6005F08E50037
:102892005E08E4005D08E300080021003508F50049
:1028A2003408F400F536F40CF536F40C740808001C
:1028B20021003308F5003208F400F536F40CF53641
:1028C200F40C7408080021003108F5003008F40007
:1028D200F536F40CF536F40C740808003200990150
:1028E2009B019D0106309F009E011C1C792C7A2CB5
:1028F200762C080080302C0099007F309800C03080
:1029020097001F08FC3901389F00080010309431ED
:10291200C5249431C730F4001730F5009331CA232F
:10292200943108007408240091002000911D9A2C13
:102932009B2C962C911124001108080000340034BD
:10294200C0343F3402342B3487343C341034FF34E7
:102952000134C834F1007108F000F00DF00D2100CF
:102962001D087006033970069D001D140800003012
:102972002000921B0130F40074080319C12CC22CF0
:10298200C32C921374080800F5007508F400F40DC6
:10299200F40D21001D087406033974069D001D14F0
:1029A20008002000111321003C083D040319DA2C11
:1029B200DB2CE02C3D088A003C080A009431080018
:1029C2005F302000E3000030D500D6005E08D8005A
:1029D2005D08D7006330D90096316626943108002D
:1029E20064346134743461340034003400340034AB
:1029F2000034003400340034003400340034003435
:102A020021006A082000A300210069082000A2001A
:102A1200210068082000A100210067082000A00012
:102A22000800210066082000A3002100650820009C
:102A3200A200210064082000A100210063082000F8
:102A4200A0000800A03021009E0005309F009B01DD
:102A52009C0101309D0011170230F4000030F50096
:102A62009331CA23953108000E303C00A000A10129
:102A720018303D009E0019309C0040302400940024
:102A820095010130920021000D13240095120800D7
:102A92002000A100A001211C4F2D502D542D74089F
:102AA200F5007508A0070310F40D0310A10C21080E
:102AB200031D5C2D5D2D4C2D20080800F500672DAF
:102AC2009331B5239531752D0030752D7508200091
:102AD200A300A4012408003A0319702D652D2308D0
:102AE200003A0319612D652D08007708203E860003
:102AF200013087002300190881000130F0007008BE
:102B0200F70708307702031C872D882D892DF701DE
:102B12000130F00070082100D1070800750820007C
:102B2200A1007408A000A136A00CA136A00C2008B8
:102B32002C009800740803392000A0000530A0354D
:102B4200FF3E031DA02D20352C0097000800200019
:102B5200A100B82D210886000130870001089731B5
:102B62003327953101302000A0002008A107210859
:102B72008600013087000108031DC02DC12DAB2D39
:102B82000800F5007508E038F4009431932495317B
:102B920020002008F400943193249531200021086C
:102BA200F40094319324953120002208F4009431EA
:102BB2009324953108002000A001A101F401943171
:102BC2009324953101302000A0070030A13D210857
:102BD200803AF50080307502031DF12D0430200289
:102BE200031CF42DF52DDF2D08002000A001A1010A
:102BF200FF30F40094319324953101302000A00776
:102C02000030A13D2108803AF50080307502031D95
:102C12000C2E04302002031C0F2E102EF92D08005A
:102C22009531DC2596312000A401A001FF30A100DE
:102C3200A20106309531C225963101302000A30051
:102C42002308A4073C302402031C282E292E162E0A
:102C52009531F625963108009531DC259631200014
:102C6200A401A001A101FF30A20006309531C225C6
:102C7200963101302000A3002308A4073C3024022F
:102C8200031C442E452E322E9531F625963108002E
:102C92009531DC2596312000A401FF30A000803060
:102CA200A100A20106309531C225963101302000E3
:102CB200A3002308A4073C302402031C612E622EC9
:102CC2004E2E9531F6259631080020005808DC007A
:102CD2005708DB00772E5608C8005508C7005B303E
:102CE200C9005908CA008C314224963120005B0881
:102CF20084005C0885001200031D802E812E6C2E3C
:102D0200D501D601080080302000C5064908B1006F
:102D12004808B0004708AF004608AE004508B500B5
:102D22004408B4004308B3004208B2008231B22220
:102D3200963120003108C5003008C4002F08C300B6
:102D42002E08C20008000830210052020318AA2EE1
:102D5200AB2EC42E7808283E860001308700010879
:102D620023009A000130F0007008F807083078025A
:102D7200031CBC2EBD2EBE2EF8010130F0007008DF
:102D82002100D207C52E111208002000A600A201C0
:102D9200A3017408A000A1012008A4002108A50035
:102DA200261CD42ED52ED92E2408A2072508A33DF1
:102DB2000130A435A50D890BDA2E0310A60C2608C6
:102DC200031DE42EE52ED12E2308F5002208F4007F
:102DD2000800210051080319EF2EF02EEA2E760882
:102DE200A03E860087010108D0007608203E8600BA
:102DF200013087000108F5000130F4007408F6077D
:102E020008307602031C062F072F082FF6019112B5
:102E12000130D1029116750808009331FA239731D7
:102E220095313525973188316020973194316F245F
:102E320097319331AC2397319431302497319531C6
:102E42002325973194312624973194317B2497316D
:102E520094310224973194311C249731883199207E
:102E620097310800F500210052080319392F3A2F33
:102E7200342F111A3D2F3E2F422F750823009A003E
:102E8200572F11127908283E8600013087007508F5
:102E920081000130F4007408F90708307902031C3C
:102EA200532F542F552FF9010130D2022100111650
:102EB20008002000200821040319602F612F8A2FA7
:102EC200F501F50A6D2F0130A035A10D890B652F93
:102ED2000130F4007408F507A11F702F712F642FC1
:102EE20021082302031D772F20082202031C7A2FB8
:102EF2007B2F7F2F2008A2022108A33B0130A1369D
:102F0200A00C890B802F0130F502031D892F8A2F17
:102F1200712F2308A1002208A00008002000B61B80
:102F2200932F942F992F3608BB003508BA009B2F98
:102F3200BA01BB01B801B901AF2F20302000A100B6
:102F42000030A2003308A4003208A3008B31102302
:102F5200973101302000B8070030B93D3908803A76
:102F6200B7003B08803A3702031DB92F3A083802EE
:102F7200031CBC2FBD2F9E2F20003308AB0032084C
:102F8200AA0034088831002097310800E72F9331D6
:102F9200C423973171082100B3007008B2001230C7
:102FA200EB00FB2F9331C423973171082100B50048
:102FB2007008B4001430EB00FB2F9331C423973117
:102FC20071082100B1007008B000D02F21006B08F9
:102FD200F200F3017308003A0319F02FFB2F720875
:102FE200103A0319C82F023A0319D32F063A0319CC
:102FF200DE2FFB2F6B089431AB24973108000A3483
:1030020040343F340034003440340134003443341B
:103012006F346D346D3461346E34643420346E3404
:103022006F347434203473347534703470346F34C4
:1030320072347434653464342E3420340034693488
:103042006E347034753474342034623475346634BA
:1030520066346534723420346F34763465347234B5
:1030620066346C346F347734003400340034B53451
:1030720013349334143400340034003400340034F4
:10308200003400340034003400340034003400349E
:1030920000342C342034643475347434793420345C
:1030A2006334793463346C3465343A342034003414
:1030B2002C342034683461347234743473346C3494
:1030C200613467343A34203400342C34203473347D
:1030D2006534743450346F3469346E3474343A3431
:1030E200203400346C346F346734733420347434D5
:1030F2006F34673467346C34653464340034483474
:1031020065346C346C346F3420343A3429342034CE
:103112000D340A34003468346F346F3467347434D5
:1031220065343A34203400342C3420346B3469341E
:103132003A34203400342C3420346B3470343A3432
:1031420020340034643461347434613400342534FE
:103152007534203400344B346934203400344B3419
:0A3162007034203400342C340034A3
:020000040001F9
:08000E008C3FF33FFF3FFF3F71
:00000001FF
